{
  "_format": "hh-sol-artifact-1",
  "contractName": "MinesGame",
  "sourceName": "contracts/mines.sol",
  "abi": [
    {
      "inputs": [],
      "stateMutability": "nonpayable",
      "type": "constructor"
    },
    {
      "inputs": [],
      "name": "FailedCall",
      "type": "error"
    },
    {
      "inputs": [
        {
          "internalType": "uint256",
          "name": "balance",
          "type": "uint256"
        },
        {
          "internalType": "uint256",
          "name": "needed",
          "type": "uint256"
        }
      ],
      "name": "InsufficientBalance",
      "type": "error"
    },
    {
      "inputs": [],
      "name": "Mines_GameIsActive",
      "type": "error"
    },
    {
      "inputs": [],
      "name": "Mines_InvalidBet",
      "type": "error"
    },
    {
      "inputs": [],
      "name": "Mines_InvalidMineCount",
      "type": "error"
    },
    {
      "inputs": [],
      "name": "Mines_NoGameInProgress",
      "type": "error"
    },
    {
      "inputs": [],
      "name": "Mines_NothingToCashOut",
      "type": "error"
    },
    {
      "inputs": [],
      "name": "Mines_TileAlreadyRevealed",
      "type": "error"
    },
    {
      "anonymous": false,
      "inputs": [
        {
          "indexed": true,
          "internalType": "address",
          "name": "player",
          "type": "address"
        },
        {
          "indexed": false,
          "internalType": "uint256",
          "name": "totalPayout",
          "type": "uint256"
        },
        {
          "indexed": false,
          "internalType": "uint256",
          "name": "initialBet",
          "type": "uint256"
        },
        {
          "indexed": false,
          "internalType": "uint8",
          "name": "safeTilesRevealed",
          "type": "uint8"
        }
      ],
      "name": "CashedOut",
      "type": "event"
    },
    {
      "anonymous": false,
      "inputs": [
        {
          "indexed": true,
          "internalType": "address",
          "name": "player",
          "type": "address"
        },
        {
          "indexed": false,
          "internalType": "bool",
          "name": "didHitMine",
          "type": "bool"
        },
        {
          "indexed": false,
          "internalType": "uint256",
          "name": "currentWinnings",
          "type": "uint256"
        }
      ],
      "name": "GameRevealed",
      "type": "event"
    },
    {
      "anonymous": false,
      "inputs": [
        {
          "indexed": true,
          "internalType": "address",
          "name": "player",
          "type": "address"
        },
        {
          "indexed": false,
          "internalType": "uint256",
          "name": "betAmount",
          "type": "uint256"
        },
        {
          "indexed": false,
          "internalType": "uint8",
          "name": "totalMines",
          "type": "uint8"
        }
      ],
      "name": "GameStarted",
      "type": "event"
    },
    {
      "inputs": [],
      "name": "GRID_SIZE",
      "outputs": [
        {
          "internalType": "uint8",
          "name": "",
          "type": "uint8"
        }
      ],
      "stateMutability": "view",
      "type": "function"
    },
    {
      "inputs": [
        {
          "internalType": "uint256",
          "name": "_bet",
          "type": "uint256"
        },
        {
          "internalType": "uint8",
          "name": "_mines",
          "type": "uint8"
        },
        {
          "internalType": "uint8",
          "name": "_safeTiles",
          "type": "uint8"
        }
      ],
      "name": "calculateWinnings",
      "outputs": [
        {
          "internalType": "uint256",
          "name": "",
          "type": "uint256"
        }
      ],
      "stateMutability": "pure",
      "type": "function"
    },
    {
      "inputs": [],
      "name": "cashOut",
      "outputs": [],
      "stateMutability": "nonpayable",
      "type": "function"
    },
    {
      "inputs": [
        {
          "internalType": "address",
          "name": "",
          "type": "address"
        }
      ],
      "name": "games",
      "outputs": [
        {
          "internalType": "address",
          "name": "player",
          "type": "address"
        },
        {
          "internalType": "uint256",
          "name": "betAmount",
          "type": "uint256"
        },
        {
          "internalType": "uint8",
          "name": "totalMines",
          "type": "uint8"
        },
        {
          "internalType": "uint8",
          "name": "revealedSafeTiles",
          "type": "uint8"
        },
        {
          "internalType": "bool",
          "name": "isActive",
          "type": "bool"
        }
      ],
      "stateMutability": "view",
      "type": "function"
    },
    {
      "inputs": [
        {
          "internalType": "address",
          "name": "_player",
          "type": "address"
        }
      ],
      "name": "getGameStatus",
      "outputs": [
        {
          "components": [
            {
              "internalType": "address",
              "name": "player",
              "type": "address"
            },
            {
              "internalType": "uint256",
              "name": "betAmount",
              "type": "uint256"
            },
            {
              "internalType": "uint8",
              "name": "totalMines",
              "type": "uint8"
            },
            {
              "internalType": "uint8",
              "name": "revealedSafeTiles",
              "type": "uint8"
            },
            {
              "internalType": "bool[]",
              "name": "revealedTiles",
              "type": "bool[]"
            },
            {
              "internalType": "uint256[]",
              "name": "mineLocations",
              "type": "uint256[]"
            },
            {
              "internalType": "bool",
              "name": "isActive",
              "type": "bool"
            }
          ],
          "internalType": "struct MinesGame.Game",
          "name": "",
          "type": "tuple"
        }
      ],
      "stateMutability": "view",
      "type": "function"
    },
    {
      "inputs": [],
      "name": "getSharedPoolBalance",
      "outputs": [
        {
          "internalType": "uint256",
          "name": "",
          "type": "uint256"
        }
      ],
      "stateMutability": "view",
      "type": "function"
    },
    {
      "inputs": [],
      "name": "owner",
      "outputs": [
        {
          "internalType": "address",
          "name": "",
          "type": "address"
        }
      ],
      "stateMutability": "view",
      "type": "function"
    },
    {
      "inputs": [
        {
          "internalType": "uint256",
          "name": "_amount",
          "type": "uint256"
        }
      ],
      "name": "ownerWithdraw",
      "outputs": [],
      "stateMutability": "nonpayable",
      "type": "function"
    },
    {
      "inputs": [
        {
          "internalType": "uint8",
          "name": "_tileIndex",
          "type": "uint8"
        }
      ],
      "name": "revealTile",
      "outputs": [],
      "stateMutability": "nonpayable",
      "type": "function"
    },
    {
      "inputs": [
        {
          "internalType": "uint8",
          "name": "_numberOfMines",
          "type": "uint8"
        }
      ],
      "name": "startGame",
      "outputs": [],
      "stateMutability": "payable",
      "type": "function"
    }
  ],
  "bytecode": "0x02a04360a0604052348015600f57600080fd5b503373ffffffffffffffffffffffffffffffffffffffff1660808173ffffffffffffffffffffffffffffffffffffffff168152505060805161213361006d60003960008181610261015281816103360152610c9501526121336000f3fe6080604052600436106100915760003560e01c8063793cd71e11610059578063793cd71e146101915780637fc4eda8146101a85780638da5cb5b146101d3578063e484d6ac146101fe578063e6ab60791461023b57610091565b8063168c698c1461009657806333f707d1146100c157806335371177146100ea57806354e4437e1461011357806379131a1914610150575b600080fd5b3480156100a257600080fd5b506100ab610257565b6040516100b891906115e5565b60405180910390f35b3480156100cd57600080fd5b506100e860048036038101906100e39190611631565b61025f565b005b3480156100f657600080fd5b50610111600480360381019061010c9190611697565b61037c565b005b34801561011f57600080fd5b5061013a60048036038101906101359190611722565b61075a565b6040516101479190611998565b60405180910390f35b34801561015c57600080fd5b5061017760048036038101906101729190611722565b61093c565b6040516101889594939291906119e7565b60405180910390f35b34801561019d57600080fd5b506101a66109b9565b005b3480156101b457600080fd5b506101bd610c8e565b6040516101ca9190611a3a565b60405180910390f35b3480156101df57600080fd5b506101e8610c93565b6040516101f59190611a55565b60405180910390f35b34801561020a57600080fd5b5061022560048036038101906102209190611a70565b610cb7565b60405161023291906115e5565b60405180910390f35b61025560048036038101906102509190611697565b610e04565b005b600047905090565b7f000000000000000000000000000000000000000000000000000000000000000073ffffffffffffffffffffffffffffffffffffffff163373ffffffffffffffffffffffffffffffffffffffff16146102ed576040517f08c379a00000000000000000000000000000000000000000000000000000000081526004016102e490611b20565b60405180910390fd5b80471015610330576040517f08c379a000000000000000000000000000000000000000000000000000000000815260040161032790611bb2565b60405180910390fd5b610379817f000000000000000000000000000000000000000000000000000000000000000073ffffffffffffffffffffffffffffffffffffffff1661130990919063ffffffff16565b50565b60008060003373ffffffffffffffffffffffffffffffffffffffff1673ffffffffffffffffffffffffffffffffffffffff16815260200190815260200160002090508060050160009054906101000a900460ff16610406576040517f8e4a08e200000000000000000000000000000000000000000000000000000000815260040160405180910390fd5b601960ff168260ff161061044f576040517f08c379a000000000000000000000000000000000000000000000000000000000815260040161044690611c1e565b60405180910390fd5b806003018260ff168154811061046857610467611c3e565b5b90600052602060002090602091828204019190069054906101000a900460ff16156104bf576040517f66a3ad3a00000000000000000000000000000000000000000000000000000000815260040160405180910390fd5b6000805b8260020160009054906101000a900460ff1660ff168160ff161015610525578360ff16836004018260ff16815481106104ff576104fe611c3e565b5b9060005260206000200154036105185760019150610525565b80806001019150506104c3565b50801561064f573373ffffffffffffffffffffffffffffffffffffffff167fe3788222dd2af2f90fd3c39274a1fd67670a436256b9930bb85644ede67f43fb60016000604051610576929190611cb2565b60405180910390a26000803373ffffffffffffffffffffffffffffffffffffffff1673ffffffffffffffffffffffffffffffffffffffff168152602001908152602001600020600080820160006101000a81549073ffffffffffffffffffffffffffffffffffffffff021916905560018201600090556002820160006101000a81549060ff02191690556002820160016101000a81549060ff02191690556003820160006106249190611418565b6004820160006106349190611440565b6005820160006101000a81549060ff02191690555050610755565b6001826003018460ff168154811061066a57610669611c3e565b5b90600052602060002090602091828204019190066101000a81548160ff02191690831515021790555081600201600181819054906101000a900460ff16809291906106b490611d0a565b91906101000a81548160ff021916908360ff16021790555050600061070083600101548460020160009054906101000a900460ff168560020160019054906101000a900460ff16610cb7565b90503373ffffffffffffffffffffffffffffffffffffffff167fe3788222dd2af2f90fd3c39274a1fd67670a436256b9930bb85644ede67f43fb60008360405161074b929190611d33565b60405180910390a2505b505050565b610762611461565b6000808373ffffffffffffffffffffffffffffffffffffffff1673ffffffffffffffffffffffffffffffffffffffff1681526020019081526020016000206040518060e00160405290816000820160009054906101000a900473ffffffffffffffffffffffffffffffffffffffff1673ffffffffffffffffffffffffffffffffffffffff1673ffffffffffffffffffffffffffffffffffffffff168152602001600182015481526020016002820160009054906101000a900460ff1660ff1660ff1681526020016002820160019054906101000a900460ff1660ff1660ff168152602001600382018054806020026020016040519081016040528092919081815260200182805480156108b957602002820191906000526020600020906000905b82829054906101000a900460ff161515815260200190600101906020826000010492830192600103820291508084116108835790505b505050505081526020016004820180548060200260200160405190810160405280929190818152602001828054801561091157602002820191906000526020600020905b8154815260200190600101908083116108fd575b505050505081526020016005820160009054906101000a900460ff1615151515815250509050919050565b60006020528060005260406000206000915090508060000160009054906101000a900473ffffffffffffffffffffffffffffffffffffffff16908060010154908060020160009054906101000a900460ff16908060020160019054906101000a900460ff16908060050160009054906101000a900460ff16905085565b60008060003373ffffffffffffffffffffffffffffffffffffffff1673ffffffffffffffffffffffffffffffffffffffff16815260200190815260200160002090508060050160009054906101000a900460ff16610a43576040517f8e4a08e200000000000000000000000000000000000000000000000000000000815260040160405180910390fd5b60008160020160019054906101000a900460ff1660ff1603610a91576040517f986cacf400000000000000000000000000000000000000000000000000000000815260040160405180910390fd5b6000610ac482600101548360020160009054906101000a900460ff168460020160019054906101000a900460ff16610cb7565b90506000818360010154610ad89190611d5c565b90506000479050600081831115610af157819050610af5565b8290505b60008560020160019054906101000a900460ff16905060008660010154905060008760000160009054906101000a900473ffffffffffffffffffffffffffffffffffffffff1690506000803373ffffffffffffffffffffffffffffffffffffffff1673ffffffffffffffffffffffffffffffffffffffff168152602001908152602001600020600080820160006101000a81549073ffffffffffffffffffffffffffffffffffffffff021916905560018201600090556002820160006101000a81549060ff02191690556002820160016101000a81549060ff0219169055600382016000610be39190611418565b600482016000610bf39190611440565b6005820160006101000a81549060ff021916905550508073ffffffffffffffffffffffffffffffffffffffff167f820760dde22aca527819e12053f628fc8677fe8c90f1366ef03cd06df2a82bad858486604051610c5393929190611d90565b60405180910390a2610c84848273ffffffffffffffffffffffffffffffffffffffff1661130990919063ffffffff16565b5050505050505050565b601981565b7f000000000000000000000000000000000000000000000000000000000000000081565b6000808260ff1603610ccc5760009050610dfd565b600068056bc75e2d6310000090506000601960ff16905060005b8460ff168160ff161015610d7e5760008660ff168260ff1684610d099190611dc7565b610d139190611dc7565b905060008103610d49577fffffffffffffffffffffffffffffffffffffffffffffffffffffffffffffffff945050505050610dfd565b808260ff1684610d599190611dc7565b85610d649190611dfb565b610d6e9190611e6c565b9350508080600101915050610ce6565b506000600290506064816064610d949190611dc7565b84610d9f9190611dfb565b610da99190611e6c565b9250670de0b6b3a7640000831015610dc757670de0b6b3a764000092505b6000670de0b6b3a76400008489610dde9190611dfb565b610de89190611e6c565b90508781610df69190611dc7565b9450505050505b9392505050565b6000803373ffffffffffffffffffffffffffffffffffffffff1673ffffffffffffffffffffffffffffffffffffffff16815260200190815260200160002060050160009054906101000a900460ff1615610e8a576040517ff7a6bed000000000000000000000000000000000000000000000000000000000815260040160405180910390fd5b60003403610ec4576040517fa1fa034900000000000000000000000000000000000000000000000000000000815260040160405180910390fd5b60008160ff161480610edd5750601960ff168160ff1610155b15610f14576040517fe3400ef200000000000000000000000000000000000000000000000000000000815260040160405180910390fd5b60008060003373ffffffffffffffffffffffffffffffffffffffff1673ffffffffffffffffffffffffffffffffffffffff1681526020019081526020016000209050338160000160006101000a81548173ffffffffffffffffffffffffffffffffffffffff021916908373ffffffffffffffffffffffffffffffffffffffff160217905550348160010181905550818160020160006101000a81548160ff021916908360ff160217905550601960ff1667ffffffffffffffff811115610fdd57610fdc611e9d565b5b60405190808252806020026020018201604052801561100b5781602001602082028036833780820191505090505b508160030190805190602001906110239291906114bc565b5060018160050160006101000a81548160ff021916908315150217905550600042334360405160200161105893929190611f35565b6040516020818303038152906040528051906020012090508160020160009054906101000a900460ff1660ff1667ffffffffffffffff81111561109e5761109d611e9d565b5b6040519080825280602002602001820160405280156110cc5781602001602082028036833780820191505090505b508260040190805190602001906110e4929190611562565b506000601960ff1667ffffffffffffffff81111561110557611104611e9d565b5b6040519080825280602002602001820160405280156111335781602001602082028036833780820191505090505b50905060005b601960ff168160ff16101561117b578060ff16828260ff168151811061116257611161611c3e565b5b6020026020010181815250508080600101915050611139565b5060005b8360020160009054906101000a900460ff1660ff168160ff1610156112b25760008160196111ad9190611f72565b60ff1684836040516020016111c3929190612008565b6040516020818303038152906040528051906020012060001c6111e69190612034565b90506000818360ff166111f99190611d5c565b905060008482815181106112105761120f611c3e565b5b60200260200101519050848460ff16815181106112305761122f611c3e565b5b602002602001015185838151811061124b5761124a611c3e565b5b60200260200101818152505080858560ff168151811061126e5761126d611c3e565b5b60200260200101818152505080876004018560ff168154811061129457611293611c3e565b5b9060005260206000200181905550505050808060010191505061117f565b503373ffffffffffffffffffffffffffffffffffffffff167faa236a91feb102276268750c1e3a04087ba228f0e931a62b6a28674de93151b434866040516112fb929190612065565b60405180910390a250505050565b804710156113505747816040517fcf47918100000000000000000000000000000000000000000000000000000000815260040161134792919061208e565b60405180910390fd5b6000808373ffffffffffffffffffffffffffffffffffffffff1683604051611377906120e8565b60006040518083038185875af1925050503d80600081146113b4576040519150601f19603f3d011682016040523d82523d6000602084013e6113b9565b606091505b5091509150816113cd576113cc816113d3565b5b50505050565b6000815111156113e65780518082602001fd5b6040517fd6bda27500000000000000000000000000000000000000000000000000000000815260040160405180910390fd5b50805460008255601f01602090049060005260206000209081019061143d91906115af565b50565b508054600082559060005260206000209081019061145e91906115af565b50565b6040518060e00160405280600073ffffffffffffffffffffffffffffffffffffffff16815260200160008152602001600060ff168152602001600060ff16815260200160608152602001606081526020016000151581525090565b82805482825590600052602060002090601f016020900481019282156115515791602002820160005b8382111561152257835183826101000a81548160ff02191690831515021790555092602001926001016020816000010492830192600103026114e5565b801561154f5782816101000a81549060ff0219169055600101602081600001049283019260010302611522565b505b50905061155e91906115af565b5090565b82805482825590600052602060002090810192821561159e579160200282015b8281111561159d578251825591602001919060010190611582565b5b5090506115ab91906115af565b5090565b5b808211156115c85760008160009055506001016115b0565b5090565b6000819050919050565b6115df816115cc565b82525050565b60006020820190506115fa60008301846115d6565b92915050565b600080fd5b61160e816115cc565b811461161957600080fd5b50565b60008135905061162b81611605565b92915050565b60006020828403121561164757611646611600565b5b60006116558482850161161c565b91505092915050565b600060ff82169050919050565b6116748161165e565b811461167f57600080fd5b50565b6000813590506116918161166b565b92915050565b6000602082840312156116ad576116ac611600565b5b60006116bb84828501611682565b91505092915050565b600073ffffffffffffffffffffffffffffffffffffffff82169050919050565b60006116ef826116c4565b9050919050565b6116ff816116e4565b811461170a57600080fd5b50565b60008135905061171c816116f6565b92915050565b60006020828403121561173857611737611600565b5b60006117468482850161170d565b91505092915050565b611758816116e4565b82525050565b611767816115cc565b82525050565b6117768161165e565b82525050565b600081519050919050565b600082825260208201905092915050565b6000819050602082019050919050565b60008115159050919050565b6117bd816117a8565b82525050565b60006117cf83836117b4565b60208301905092915050565b6000602082019050919050565b60006117f38261177c565b6117fd8185611787565b935061180883611798565b8060005b8381101561183957815161182088826117c3565b975061182b836117db565b92505060018101905061180c565b5085935050505092915050565b600081519050919050565b600082825260208201905092915050565b6000819050602082019050919050565b600061187e838361175e565b60208301905092915050565b6000602082019050919050565b60006118a282611846565b6118ac8185611851565b93506118b783611862565b8060005b838110156118e85781516118cf8882611872565b97506118da8361188a565b9250506001810190506118bb565b5085935050505092915050565b600060e08301600083015161190d600086018261174f565b506020830151611920602086018261175e565b506040830151611933604086018261176d565b506060830151611946606086018261176d565b506080830151848203608086015261195e82826117e8565b91505060a083015184820360a08601526119788282611897565b91505060c083015161198d60c08601826117b4565b508091505092915050565b600060208201905081810360008301526119b281846118f5565b905092915050565b6119c3816116e4565b82525050565b6119d28161165e565b82525050565b6119e1816117a8565b82525050565b600060a0820190506119fc60008301886119ba565b611a0960208301876115d6565b611a1660408301866119c9565b611a2360608301856119c9565b611a3060808301846119d8565b9695505050505050565b6000602082019050611a4f60008301846119c9565b92915050565b6000602082019050611a6a60008301846119ba565b92915050565b600080600060608486031215611a8957611a88611600565b5b6000611a978682870161161c565b9350506020611aa886828701611682565b9250506040611ab986828701611682565b9150509250925092565b600082825260208201905092915050565b7f4f6e6c79206f776e657200000000000000000000000000000000000000000000600082015250565b6000611b0a600a83611ac3565b9150611b1582611ad4565b602082019050919050565b60006020820190508181036000830152611b3981611afd565b9050919050565b7f5769746864726177616c20616d6f756e7420657863656564732062616c616e6360008201527f6500000000000000000000000000000000000000000000000000000000000000602082015250565b6000611b9c602183611ac3565b9150611ba782611b40565b604082019050919050565b60006020820190508181036000830152611bcb81611b8f565b9050919050565b7f496e76616c69642074696c6520696e6465780000000000000000000000000000600082015250565b6000611c08601283611ac3565b9150611c1382611bd2565b602082019050919050565b60006020820190508181036000830152611c3781611bfb565b9050919050565b7f4e487b7100000000000000000000000000000000000000000000000000000000600052603260045260246000fd5b6000819050919050565b6000819050919050565b6000611c9c611c97611c9284611c6d565b611c77565b6115cc565b9050919050565b611cac81611c81565b82525050565b6000604082019050611cc760008301856119d8565b611cd46020830184611ca3565b9392505050565b7f4e487b7100000000000000000000000000000000000000000000000000000000600052601160045260246000fd5b6000611d158261165e565b915060ff8203611d2857611d27611cdb565b5b600182019050919050565b6000604082019050611d4860008301856119d8565b611d5560208301846115d6565b9392505050565b6000611d67826115cc565b9150611d72836115cc565b9250828201905080821115611d8a57611d89611cdb565b5b92915050565b6000606082019050611da560008301866115d6565b611db260208301856115d6565b611dbf60408301846119c9565b949350505050565b6000611dd2826115cc565b9150611ddd836115cc565b9250828203905081811115611df557611df4611cdb565b5b92915050565b6000611e06826115cc565b9150611e11836115cc565b9250828202611e1f816115cc565b91508282048414831517611e3657611e35611cdb565b5b5092915050565b7f4e487b7100000000000000000000000000000000000000000000000000000000600052601260045260246000fd5b6000611e77826115cc565b9150611e82836115cc565b925082611e9257611e91611e3d565b5b828204905092915050565b7f4e487b7100000000000000000000000000000000000000000000000000000000600052604160045260246000fd5b6000819050919050565b611ee7611ee2826115cc565b611ecc565b82525050565b60008160601b9050919050565b6000611f0582611eed565b9050919050565b6000611f1782611efa565b9050919050565b611f2f611f2a826116e4565b611f0c565b82525050565b6000611f418286611ed6565b602082019150611f518285611f1e565b601482019150611f618284611ed6565b602082019150819050949350505050565b6000611f7d8261165e565b9150611f888361165e565b9250828203905060ff811115611fa157611fa0611cdb565b5b92915050565b6000819050919050565b6000819050919050565b611fcc611fc782611fa7565b611fb1565b82525050565b60008160f81b9050919050565b6000611fea82611fd2565b9050919050565b612002611ffd8261165e565b611fdf565b82525050565b60006120148285611fbb565b6020820191506120248284611ff1565b6001820191508190509392505050565b600061203f826115cc565b915061204a836115cc565b92508261205a57612059611e3d565b5b828206905092915050565b600060408201905061207a60008301856115d6565b61208760208301846119c9565b9392505050565b60006040820190506120a360008301856115d6565b6120b060208301846115d6565b9392505050565b600081905092915050565b50565b60006120d26000836120b7565b91506120dd826120c2565b600082019050919050565b60006120f3826120c5565b915081905091905056fea264697066735822122021ecb212a68777005e82778147274b697cc96ed3241d103360dbf1593f981b1064736f6c634300081c0033",
  "linkReferences": {},
  "deployedLinkReferences": {}
}