{
  "_format": "hh-sol-artifact-1",
  "contractName": "MinesGame",
  "sourceName": "contracts/mines.sol",
  "abi": [
    {
      "inputs": [],
      "stateMutability": "nonpayable",
      "type": "constructor"
    },
    {
      "inputs": [],
      "name": "FailedCall",
      "type": "error"
    },
    {
      "inputs": [
        {
          "internalType": "uint256",
          "name": "balance",
          "type": "uint256"
        },
        {
          "internalType": "uint256",
          "name": "needed",
          "type": "uint256"
        }
      ],
      "name": "InsufficientBalance",
      "type": "error"
    },
    {
      "inputs": [],
      "name": "Mines_GameIsActive",
      "type": "error"
    },
    {
      "inputs": [],
      "name": "Mines_InvalidBet",
      "type": "error"
    },
    {
      "inputs": [],
      "name": "Mines_InvalidMineCount",
      "type": "error"
    },
    {
      "inputs": [],
      "name": "Mines_NoGameInProgress",
      "type": "error"
    },
    {
      "inputs": [],
      "name": "Mines_NothingToCashOut",
      "type": "error"
    },
    {
      "inputs": [],
      "name": "Mines_TileAlreadyRevealed",
      "type": "error"
    },
    {
      "inputs": [],
      "name": "Mines_TransferFailed",
      "type": "error"
    },
    {
      "anonymous": false,
      "inputs": [
        {
          "indexed": true,
          "internalType": "address",
          "name": "player",
          "type": "address"
        },
        {
          "indexed": false,
          "internalType": "uint256",
          "name": "winnings",
          "type": "uint256"
        }
      ],
      "name": "CashedOut",
      "type": "event"
    },
    {
      "anonymous": false,
      "inputs": [
        {
          "indexed": true,
          "internalType": "address",
          "name": "player",
          "type": "address"
        },
        {
          "indexed": false,
          "internalType": "bool",
          "name": "didHitMine",
          "type": "bool"
        },
        {
          "indexed": false,
          "internalType": "uint256",
          "name": "payout",
          "type": "uint256"
        }
      ],
      "name": "GameRevealed",
      "type": "event"
    },
    {
      "anonymous": false,
      "inputs": [
        {
          "indexed": true,
          "internalType": "address",
          "name": "player",
          "type": "address"
        },
        {
          "indexed": false,
          "internalType": "uint256",
          "name": "betAmount",
          "type": "uint256"
        },
        {
          "indexed": false,
          "internalType": "uint8",
          "name": "totalMines",
          "type": "uint8"
        }
      ],
      "name": "GameStarted",
      "type": "event"
    },
    {
      "inputs": [],
      "name": "GRID_SIZE",
      "outputs": [
        {
          "internalType": "uint8",
          "name": "",
          "type": "uint8"
        }
      ],
      "stateMutability": "view",
      "type": "function"
    },
    {
      "inputs": [
        {
          "internalType": "uint256",
          "name": "_bet",
          "type": "uint256"
        },
        {
          "internalType": "uint8",
          "name": "_mines",
          "type": "uint8"
        },
        {
          "internalType": "uint8",
          "name": "_safeTiles",
          "type": "uint8"
        }
      ],
      "name": "calculateWinnings",
      "outputs": [
        {
          "internalType": "uint256",
          "name": "",
          "type": "uint256"
        }
      ],
      "stateMutability": "pure",
      "type": "function"
    },
    {
      "inputs": [],
      "name": "cashOut",
      "outputs": [],
      "stateMutability": "nonpayable",
      "type": "function"
    },
    {
      "inputs": [
        {
          "internalType": "address",
          "name": "",
          "type": "address"
        }
      ],
      "name": "games",
      "outputs": [
        {
          "internalType": "address",
          "name": "player",
          "type": "address"
        },
        {
          "internalType": "uint256",
          "name": "betAmount",
          "type": "uint256"
        },
        {
          "internalType": "uint8",
          "name": "totalMines",
          "type": "uint8"
        },
        {
          "internalType": "uint8",
          "name": "revealedSafeTiles",
          "type": "uint8"
        },
        {
          "internalType": "bool",
          "name": "isActive",
          "type": "bool"
        }
      ],
      "stateMutability": "view",
      "type": "function"
    },
    {
      "inputs": [
        {
          "internalType": "address",
          "name": "_player",
          "type": "address"
        }
      ],
      "name": "getGameStatus",
      "outputs": [
        {
          "components": [
            {
              "internalType": "address",
              "name": "player",
              "type": "address"
            },
            {
              "internalType": "uint256",
              "name": "betAmount",
              "type": "uint256"
            },
            {
              "internalType": "uint8",
              "name": "totalMines",
              "type": "uint8"
            },
            {
              "internalType": "uint8",
              "name": "revealedSafeTiles",
              "type": "uint8"
            },
            {
              "internalType": "bool[]",
              "name": "revealedTiles",
              "type": "bool[]"
            },
            {
              "internalType": "uint256[]",
              "name": "mineLocations",
              "type": "uint256[]"
            },
            {
              "internalType": "bool",
              "name": "isActive",
              "type": "bool"
            }
          ],
          "internalType": "struct MinesGame.Game",
          "name": "",
          "type": "tuple"
        }
      ],
      "stateMutability": "view",
      "type": "function"
    },
    {
      "inputs": [],
      "name": "owner",
      "outputs": [
        {
          "internalType": "address",
          "name": "",
          "type": "address"
        }
      ],
      "stateMutability": "view",
      "type": "function"
    },
    {
      "inputs": [
        {
          "internalType": "uint8",
          "name": "_tileIndex",
          "type": "uint8"
        }
      ],
      "name": "revealTile",
      "outputs": [],
      "stateMutability": "nonpayable",
      "type": "function"
    },
    {
      "inputs": [
        {
          "internalType": "uint8",
          "name": "_numberOfMines",
          "type": "uint8"
        }
      ],
      "name": "startGame",
      "outputs": [],
      "stateMutability": "payable",
      "type": "function"
    },
    {
      "inputs": [],
      "name": "withdraw",
      "outputs": [],
      "stateMutability": "nonpayable",
      "type": "function"
    }
  ],
  "bytecode": "0x02c53f60a0604052348015600f57600080fd5b503373ffffffffffffffffffffffffffffffffffffffff1660808173ffffffffffffffffffffffffffffffffffffffff1681525050608051611f5861006d600039600081816105ef015281816106c00152610bff0152611f586000f3fe6080604052600436106100865760003560e01c8063793cd71e11610059578063793cd71e146101495780637fc4eda8146101605780638da5cb5b1461018b578063e484d6ac146101b6578063e6ab6079146101f357610086565b8063353711771461008b5780633ccfd60b146100b457806354e4437e146100cb57806379131a1914610108575b600080fd5b34801561009757600080fd5b506100b260048036038101906100ad9190611525565b61020f565b005b3480156100c057600080fd5b506100c96105ed565b005b3480156100d757600080fd5b506100f260048036038101906100ed91906115b0565b610706565b6040516100ff9190611830565b60405180910390f35b34801561011457600080fd5b5061012f600480360381019061012a91906115b0565b6108e8565b60405161014095949392919061188e565b60405180910390f35b34801561015557600080fd5b5061015e610965565b005b34801561016c57600080fd5b50610175610bf8565b60405161018291906118e1565b60405180910390f35b34801561019757600080fd5b506101a0610bfd565b6040516101ad91906118fc565b60405180910390f35b3480156101c257600080fd5b506101dd60048036038101906101d89190611943565b610c21565b6040516101ea9190611996565b60405180910390f35b61020d60048036038101906102089190611525565b610d1f565b005b60008060003373ffffffffffffffffffffffffffffffffffffffff1673ffffffffffffffffffffffffffffffffffffffff16815260200190815260200160002090508060050160009054906101000a900460ff16610299576040517f8e4a08e200000000000000000000000000000000000000000000000000000000815260040160405180910390fd5b601960ff168260ff16106102e2576040517f08c379a00000000000000000000000000000000000000000000000000000000081526004016102d990611a0e565b60405180910390fd5b806003018260ff16815481106102fb576102fa611a2e565b5b90600052602060002090602091828204019190069054906101000a900460ff1615610352576040517f66a3ad3a00000000000000000000000000000000000000000000000000000000815260040160405180910390fd5b6000805b8260020160009054906101000a900460ff1660ff168160ff1610156103b8578360ff16836004018260ff168154811061039257610391611a2e565b5b9060005260206000200154036103ab57600191506103b8565b8080600101915050610356565b5080156104e2573373ffffffffffffffffffffffffffffffffffffffff167fe3788222dd2af2f90fd3c39274a1fd67670a436256b9930bb85644ede67f43fb60016000604051610409929190611aa2565b60405180910390a26000803373ffffffffffffffffffffffffffffffffffffffff1673ffffffffffffffffffffffffffffffffffffffff168152602001908152602001600020600080820160006101000a81549073ffffffffffffffffffffffffffffffffffffffff021916905560018201600090556002820160006101000a81549060ff02191690556002820160016101000a81549060ff02191690556003820160006104b79190611333565b6004820160006104c7919061135b565b6005820160006101000a81549060ff021916905550506105e8565b6001826003018460ff16815481106104fd576104fc611a2e565b5b90600052602060002090602091828204019190066101000a81548160ff02191690831515021790555081600201600181819054906101000a900460ff168092919061054790611afa565b91906101000a81548160ff021916908360ff16021790555050600061059383600101548460020160009054906101000a900460ff168560020160019054906101000a900460ff16610c21565b90503373ffffffffffffffffffffffffffffffffffffffff167fe3788222dd2af2f90fd3c39274a1fd67670a436256b9930bb85644ede67f43fb6000836040516105de929190611b23565b60405180910390a2505b505050565b7f000000000000000000000000000000000000000000000000000000000000000073ffffffffffffffffffffffffffffffffffffffff163373ffffffffffffffffffffffffffffffffffffffff161461067b576040517f08c379a000000000000000000000000000000000000000000000000000000000815260040161067290611b98565b60405180910390fd5b6000479050600081036106ba576040517fb1f3a88c00000000000000000000000000000000000000000000000000000000815260040160405180910390fd5b610703817f000000000000000000000000000000000000000000000000000000000000000073ffffffffffffffffffffffffffffffffffffffff1661122490919063ffffffff16565b50565b61070e61137c565b6000808373ffffffffffffffffffffffffffffffffffffffff1673ffffffffffffffffffffffffffffffffffffffff1681526020019081526020016000206040518060e00160405290816000820160009054906101000a900473ffffffffffffffffffffffffffffffffffffffff1673ffffffffffffffffffffffffffffffffffffffff1673ffffffffffffffffffffffffffffffffffffffff168152602001600182015481526020016002820160009054906101000a900460ff1660ff1660ff1681526020016002820160019054906101000a900460ff1660ff1660ff1681526020016003820180548060200260200160405190810160405280929190818152602001828054801561086557602002820191906000526020600020906000905b82829054906101000a900460ff1615158152602001906001019060208260000104928301926001038202915080841161082f5790505b50505050508152602001600482018054806020026020016040519081016040528092919081815260200182805480156108bd57602002820191906000526020600020905b8154815260200190600101908083116108a9575b505050505081526020016005820160009054906101000a900460ff1615151515815250509050919050565b60006020528060005260406000206000915090508060000160009054906101000a900473ffffffffffffffffffffffffffffffffffffffff16908060010154908060020160009054906101000a900460ff16908060020160019054906101000a900460ff16908060050160009054906101000a900460ff16905085565b60008060003373ffffffffffffffffffffffffffffffffffffffff1673ffffffffffffffffffffffffffffffffffffffff16815260200190815260200160002090508060050160009054906101000a900460ff166109ef576040517f8e4a08e200000000000000000000000000000000000000000000000000000000815260040160405180910390fd5b60008160020160019054906101000a900460ff1660ff1603610a3d576040517f986cacf400000000000000000000000000000000000000000000000000000000815260040160405180910390fd5b6000610a7082600101548360020160009054906101000a900460ff168460020160019054906101000a900460ff16610c21565b90506000818360010154610a849190611bb8565b905060008360000160009054906101000a900473ffffffffffffffffffffffffffffffffffffffff1690506000803373ffffffffffffffffffffffffffffffffffffffff1673ffffffffffffffffffffffffffffffffffffffff168152602001908152602001600020600080820160006101000a81549073ffffffffffffffffffffffffffffffffffffffff021916905560018201600090556002820160006101000a81549060ff02191690556002820160016101000a81549060ff0219169055600382016000610b559190611333565b600482016000610b65919061135b565b6005820160006101000a81549060ff021916905550508073ffffffffffffffffffffffffffffffffffffffff167fe06967e7fd975cc9904aa15242766aaba6f64c2f31a947f1890ff158d9a7610e83604051610bc19190611996565b60405180910390a2610bf2828273ffffffffffffffffffffffffffffffffffffffff1661122490919063ffffffff16565b50505050565b601981565b7f000000000000000000000000000000000000000000000000000000000000000081565b60008068056bc75e2d6310000090506000601960ff16905060005b8460ff168160ff161015610c9a578560ff168160ff1683610c5d9190611bec565b610c679190611bec565b8160ff1683610c769190611bec565b84610c819190611c20565b610c8b9190611c91565b92508080600101915050610c3c565b506000600290506064816064610cb09190611bec565b84610cbb9190611c20565b610cc59190611c91565b9250670de0b6b3a7640000831015610ce357670de0b6b3a764000092505b6000670de0b6b3a76400008489610cfa9190611c20565b610d049190611c91565b90508781610d129190611bec565b9450505050509392505050565b6000803373ffffffffffffffffffffffffffffffffffffffff1673ffffffffffffffffffffffffffffffffffffffff16815260200190815260200160002060050160009054906101000a900460ff1615610da5576040517ff7a6bed000000000000000000000000000000000000000000000000000000000815260040160405180910390fd5b60003403610ddf576040517fa1fa034900000000000000000000000000000000000000000000000000000000815260040160405180910390fd5b60008160ff161480610df85750601960ff168160ff1610155b15610e2f576040517fe3400ef200000000000000000000000000000000000000000000000000000000815260040160405180910390fd5b60008060003373ffffffffffffffffffffffffffffffffffffffff1673ffffffffffffffffffffffffffffffffffffffff1681526020019081526020016000209050338160000160006101000a81548173ffffffffffffffffffffffffffffffffffffffff021916908373ffffffffffffffffffffffffffffffffffffffff160217905550348160010181905550818160020160006101000a81548160ff021916908360ff160217905550601960ff1667ffffffffffffffff811115610ef857610ef7611cc2565b5b604051908082528060200260200182016040528015610f265781602001602082028036833780820191505090505b50816003019080519060200190610f3e9291906113d7565b5060018160050160006101000a81548160ff0219169083151502179055506000423343604051602001610f7393929190611d5a565b6040516020818303038152906040528051906020012090508160020160009054906101000a900460ff1660ff1667ffffffffffffffff811115610fb957610fb8611cc2565b5b604051908082528060200260200182016040528015610fe75781602001602082028036833780820191505090505b50826004019080519060200190610fff92919061147d565b506000601960ff1667ffffffffffffffff8111156110205761101f611cc2565b5b60405190808252806020026020018201604052801561104e5781602001602082028036833780820191505090505b50905060005b601960ff168160ff161015611096578060ff16828260ff168151811061107d5761107c611a2e565b5b6020026020010181815250508080600101915050611054565b5060005b8360020160009054906101000a900460ff1660ff168160ff1610156111cd5760008160196110c89190611d97565b60ff1684836040516020016110de929190611e2d565b6040516020818303038152906040528051906020012060001c6111019190611e59565b90506000818360ff166111149190611bb8565b9050600084828151811061112b5761112a611a2e565b5b60200260200101519050848460ff168151811061114b5761114a611a2e565b5b602002602001015185838151811061116657611165611a2e565b5b60200260200101818152505080858560ff168151811061118957611188611a2e565b5b60200260200101818152505080876004018560ff16815481106111af576111ae611a2e565b5b9060005260206000200181905550505050808060010191505061109a565b503373ffffffffffffffffffffffffffffffffffffffff167faa236a91feb102276268750c1e3a04087ba228f0e931a62b6a28674de93151b43486604051611216929190611e8a565b60405180910390a250505050565b8047101561126b5747816040517fcf479181000000000000000000000000000000000000000000000000000000008152600401611262929190611eb3565b60405180910390fd5b6000808373ffffffffffffffffffffffffffffffffffffffff168360405161129290611f0d565b60006040518083038185875af1925050503d80600081146112cf576040519150601f19603f3d011682016040523d82523d6000602084013e6112d4565b606091505b5091509150816112e8576112e7816112ee565b5b50505050565b6000815111156113015780518082602001fd5b6040517fd6bda27500000000000000000000000000000000000000000000000000000000815260040160405180910390fd5b50805460008255601f01602090049060005260206000209081019061135891906114ca565b50565b508054600082559060005260206000209081019061137991906114ca565b50565b6040518060e00160405280600073ffffffffffffffffffffffffffffffffffffffff16815260200160008152602001600060ff168152602001600060ff16815260200160608152602001606081526020016000151581525090565b82805482825590600052602060002090601f0160209004810192821561146c5791602002820160005b8382111561143d57835183826101000a81548160ff0219169083151502179055509260200192600101602081600001049283019260010302611400565b801561146a5782816101000a81549060ff021916905560010160208160000104928301926001030261143d565b505b50905061147991906114ca565b5090565b8280548282559060005260206000209081019282156114b9579160200282015b828111156114b857825182559160200191906001019061149d565b5b5090506114c691906114ca565b5090565b5b808211156114e35760008160009055506001016114cb565b5090565b600080fd5b600060ff82169050919050565b611502816114ec565b811461150d57600080fd5b50565b60008135905061151f816114f9565b92915050565b60006020828403121561153b5761153a6114e7565b5b600061154984828501611510565b91505092915050565b600073ffffffffffffffffffffffffffffffffffffffff82169050919050565b600061157d82611552565b9050919050565b61158d81611572565b811461159857600080fd5b50565b6000813590506115aa81611584565b92915050565b6000602082840312156115c6576115c56114e7565b5b60006115d48482850161159b565b91505092915050565b6115e681611572565b82525050565b6000819050919050565b6115ff816115ec565b82525050565b61160e816114ec565b82525050565b600081519050919050565b600082825260208201905092915050565b6000819050602082019050919050565b60008115159050919050565b61165581611640565b82525050565b6000611667838361164c565b60208301905092915050565b6000602082019050919050565b600061168b82611614565b611695818561161f565b93506116a083611630565b8060005b838110156116d15781516116b8888261165b565b97506116c383611673565b9250506001810190506116a4565b5085935050505092915050565b600081519050919050565b600082825260208201905092915050565b6000819050602082019050919050565b600061171683836115f6565b60208301905092915050565b6000602082019050919050565b600061173a826116de565b61174481856116e9565b935061174f836116fa565b8060005b83811015611780578151611767888261170a565b975061177283611722565b925050600181019050611753565b5085935050505092915050565b600060e0830160008301516117a560008601826115dd565b5060208301516117b860208601826115f6565b5060408301516117cb6040860182611605565b5060608301516117de6060860182611605565b50608083015184820360808601526117f68282611680565b91505060a083015184820360a0860152611810828261172f565b91505060c083015161182560c086018261164c565b508091505092915050565b6000602082019050818103600083015261184a818461178d565b905092915050565b61185b81611572565b82525050565b61186a816115ec565b82525050565b611879816114ec565b82525050565b61188881611640565b82525050565b600060a0820190506118a36000830188611852565b6118b06020830187611861565b6118bd6040830186611870565b6118ca6060830185611870565b6118d7608083018461187f565b9695505050505050565b60006020820190506118f66000830184611870565b92915050565b60006020820190506119116000830184611852565b92915050565b611920816115ec565b811461192b57600080fd5b50565b60008135905061193d81611917565b92915050565b60008060006060848603121561195c5761195b6114e7565b5b600061196a8682870161192e565b935050602061197b86828701611510565b925050604061198c86828701611510565b9150509250925092565b60006020820190506119ab6000830184611861565b92915050565b600082825260208201905092915050565b7f496e76616c69642074696c6520696e6465780000000000000000000000000000600082015250565b60006119f86012836119b1565b9150611a03826119c2565b602082019050919050565b60006020820190508181036000830152611a27816119eb565b9050919050565b7f4e487b7100000000000000000000000000000000000000000000000000000000600052603260045260246000fd5b6000819050919050565b6000819050919050565b6000611a8c611a87611a8284611a5d565b611a67565b6115ec565b9050919050565b611a9c81611a71565b82525050565b6000604082019050611ab7600083018561187f565b611ac46020830184611a93565b9392505050565b7f4e487b7100000000000000000000000000000000000000000000000000000000600052601160045260246000fd5b6000611b05826114ec565b915060ff8203611b1857611b17611acb565b5b600182019050919050565b6000604082019050611b38600083018561187f565b611b456020830184611861565b9392505050565b7f4e6f74206f776e65720000000000000000000000000000000000000000000000600082015250565b6000611b826009836119b1565b9150611b8d82611b4c565b602082019050919050565b60006020820190508181036000830152611bb181611b75565b9050919050565b6000611bc3826115ec565b9150611bce836115ec565b9250828201905080821115611be657611be5611acb565b5b92915050565b6000611bf7826115ec565b9150611c02836115ec565b9250828203905081811115611c1a57611c19611acb565b5b92915050565b6000611c2b826115ec565b9150611c36836115ec565b9250828202611c44816115ec565b91508282048414831517611c5b57611c5a611acb565b5b5092915050565b7f4e487b7100000000000000000000000000000000000000000000000000000000600052601260045260246000fd5b6000611c9c826115ec565b9150611ca7836115ec565b925082611cb757611cb6611c62565b5b828204905092915050565b7f4e487b7100000000000000000000000000000000000000000000000000000000600052604160045260246000fd5b6000819050919050565b611d0c611d07826115ec565b611cf1565b82525050565b60008160601b9050919050565b6000611d2a82611d12565b9050919050565b6000611d3c82611d1f565b9050919050565b611d54611d4f82611572565b611d31565b82525050565b6000611d668286611cfb565b602082019150611d768285611d43565b601482019150611d868284611cfb565b602082019150819050949350505050565b6000611da2826114ec565b9150611dad836114ec565b9250828203905060ff811115611dc657611dc5611acb565b5b92915050565b6000819050919050565b6000819050919050565b611df1611dec82611dcc565b611dd6565b82525050565b60008160f81b9050919050565b6000611e0f82611df7565b9050919050565b611e27611e22826114ec565b611e04565b82525050565b6000611e398285611de0565b602082019150611e498284611e16565b6001820191508190509392505050565b6000611e64826115ec565b9150611e6f836115ec565b925082611e7f57611e7e611c62565b5b828206905092915050565b6000604082019050611e9f6000830185611861565b611eac6020830184611870565b9392505050565b6000604082019050611ec86000830185611861565b611ed56020830184611861565b9392505050565b600081905092915050565b50565b6000611ef7600083611edc565b9150611f0282611ee7565b600082019050919050565b6000611f1882611eea565b915081905091905056fea264697066735822122085ca04bf8d4530a4667b06142e5c1722558c1596b212778198545dce714a4b3e64736f6c634300081c0033",
  "linkReferences": {},
  "deployedLinkReferences": {}
}